:0D08C6007FFA7E001208D3D2A17FFA7E00D7
:1008D3007C007D0F120800E4FDFCC3ED9FEC9E50ED
:0808E300070DBD00010C80F2BD
:0108EB0022EA
:05097300D2A0D2A12278
:10090700D2A1D2A07FF47E011208D3C2A07FF47EC9
:04091700010208D3FE
:10091B00C2A11208CFD2A01208C6C2A07FFA7E00D5
:03092B000208D3EC
:10092E00C2A11208CFC2A01208C6D2A07FFA7E00C2
:03093E000208D3D9
:10094100C2A11208CFC2A01208CFD2A17FF47E01AA
:030951000208D3C6
:10095400C2A11208CFD2A01208CFD2A17FF47E0187
:030964000208D3B3
:02085500AB07EF
:10085700E4FAC2A11208CFEBA802088002C333D87A
:10086700FC30E704D2A08002C2A01208CFD2A17F39
:10087700F47E011208D30ABA08D8C2A1D2A07FF425
:100887007E011208D3D2A17FF47E011208D3A2A061
:01089700223E
:10089800E4FBFAC2A1D2A07FF47E011208CAA2A08A
:1008A800E433F9C374079AFFE9A807088002C33341
:0D08B800D8FC42031208CF0ABA08D8AF03DB
:0108C5002210
:1008EC00E4F5081209731209077FB01208551208B3
:0B08FC00988F0812094112092E80FE9F
:030000000209678B
:0C096700787FE4F6D8FD7581080208ECEA
:10080000BC000BBE0029EF8DF084FFADF022E4CCDC
:10081000F875F008EF2FFFEE33FEEC33FCEE9DECA5
:10082000984005FCEE9DFE0FD5F0E9E4CEFD22EDEB
:10083000F8F5F0EE8420D21CFEADF075F008EF2F35
:10084000FFED33FD4007985006D5F0F222C398FD26
:050850000FD5F0EA22C3
:00000001FF
