:03000000020CB23D
:0C0CB200787FE4F6D8FD75813D020B9EB2
:100AD60057656C636F6D6520746F204144433332F4
:100AE600303420696E746572666163696E6720775B
:100AF600697A617264000A0D002A2A2A2A2A2A2A99
:100B06002A2A20416E616E74204469676974616C9B
:100B160020576F726C64202A2A2A2A2A2A2A2A0037
:100B2600766F6C74616765206F66206368616E6EB0
:100B3600656C2030206973203A2025662000766F88
:100B46006C74616765206F66206368616E6E656CA4
:100B56002031206973203A2025662000766F6C7458
:100B6600616765206F66206368616E6E656C203212
:100B7600206973203A2025662000766F6C746167C1
:100B860065206F66206368616E6E656C2033206930
:080B960073203A2025662000BF
:100B9E00120CBE7BFF7A0A79D61205C97BFF7A0A40
:100BAE0079FC1205C97BFF7A0A79FF1205C97BFF12
:100BBE007A0A79FC1205C9E4FFFE1209D68F288E37
:100BCE00278D268C257BFF7A0B79261205C97BFF94
:100BDE007A0A79FC1205C9120C7E7F017E00120979
:100BEE00D68F288E278D268C257BFF7A0B79441283
:100BFE0005C97BFF7A0A79FC1205C9120C7E7F02A9
:100C0E007E001209D68F288E278D268C257BFF7AA3
:100C1E000B79621205C97BFF7A0A79FC1205C9129B
:100C2E000C7E7F037E001209D68F288E278D268C90
:100C3E00257BFF7A0B79801205C97BFF7A0A79FC36
:090C4E001205C9120C7E020BC54F
:0409D6008E228F23BB
:1009DA00E4F524F525E52345227025120CA2D294CC
:1009EA00120CACD294C295C294120CB0D294C29595
:1009FA00C294120CB0D294C295C294120CB0D29482
:100A0A00E523640145227021120CA2D294120CAC87
:100A1A00D294C295C294120CB0D294C295C29412C6
:100A2A000CB0D294120CACD294E523640245227025
:100A3A0021120CA2D294120CACD294C295C2941276
:100A4A000CB0D294120CACD294C295C294120CB0CF
:100A5A00D294E52364034522701D120CA2D294128B
:100A6A000CACD294C295C294120CB0D294120CACB3
:100A7A00D294120CACD294C294120CB0D294C294F6
:100A8A00120CB0D294E4FDE52525E0F525E52433E2
:100A9A00F524C29430960A0525E5257002052480BE
:100AAA0006852424852525D2940DBD0CDAD297AC6F
:100ABA0024AD25E41201AEE4FBFA79A078401200D5
:0B0ACA0003E4FBFA7980784512010C70
:010AD50022FE
:040C7E007F647E0011
:100C8200E4FDFCC3ED9FEC9E5015E4FBFA0BBB00A8
:0F0C9200010ABA04F8BBFBF50DBD00010C80E4AC
:010CA1002230
:0E0CA200D297D294D295D296C297D295C29490
:020CB000002220
:0C0CBE00759852758920758DFDD28E222C
:10000300EC4D6011E8497017ED33EC3304600DE4F7
:10001300FCFFFEFD22E933E8330470F802021C12F0
:1000230001E758046009E4CC2481500628500902F2
:100033000226284003020223C0E0EB4A7044B98041
:1000430006D0E0FB020212EF4E701CBD8008EBFFEE
:10005300EAFEE9FD80EBE98DF0A4FEE5F00200EC99
:10006300E9CDF9EAFEEBFFEF89F0A4FCE5F0CE89D8
:10007300F0A42EFFE435F0CD89F0A42DFEE435F095
:100083008067EF4E7005BD80D780C3EF8BF0A4ACC3
:10009300F0EE8BF0A42CFCE435F0F8EF8AF0A42CFE
:1000A300E5F038FCE433CB8DF0A42CFCE5F03BF811
:1000B300EE8AF0A42CFCE5F038F8E433CF89F0A401
:1000C3002CFCE5F038CF3400CE89F0A42FFFE5F007
:1000D3003EFEE433C98DF0A42EFEE5F039CD8AF05F
:1000E300A42FFFE5F03EFEE43DFD33D0E0FB5007D7
:1000F3000BBB000F020226EC2CFCEF33FFEE33FEAA
:06010300ED33FD0201FED8
:10010900020226EC5D046005E85904700302021C32
:100119001201E7580460F6EC4860F2EC7004FDFE49
:10012900FF22C860DB2481C85009C39860025006C9
:100139000202239850CAF582E9294B4A7005AB821D
:1001490002021275F0007C1A7880C3EF9BEE9AEDDB
:1001590099400DC3EF9BFFEE9AFEED99FDE842F041
:10016900DC23ACF0D0E0FFD0E0FED0E0FDAB822094
:10017900E7101BEB60BAEC2CFCEF33FFEE33FEED1E
:1001890033FD0201FEE803F830E705C0F075F00021
:10019900EF2FFFEE33FEED33FD40B830E7C280AA02
:1001A90075F020800E75F010800575F0087D007ED1
:1001B900007F003392D530D503120523EC3340106C
:1001C900EF33FFEE33FEED33FDEC33FCD5F0ED22DA
:0E01D900E5F0247EA2D513CC92E7CDCEFF2216
:10056700E5392425F8E6053922782230070278256F
:10057700E475F0011205310204CB2000EB7F2ED287
:10058700008018EF540F2490D43440D4FF30040B6C
:10059700EF24BFB41A0050032461FFE53A60021547
:1005A7003A053DE53D7002053C30070D7822E475BC
:1005B700F001120531EF020511020C577403D2073F
:1005C7008003E4C207F5398B228A238924E4F53AAC
:1005D700F53CF53DE53A60077F201205A280F575E9
:1005E7003BFFC201C200C202C203C205C206C20863
:1005F700120570FF700D3007057F001205B3AF3D80
:10060700AE3C22B4255FC2D5C204120570FF24D0C8
:10061700B40A00501A75F00A783A30D50508B6FFC3
:100627000106C6A426F620D5047002D20380D92479
:10063700CFB41A00EF5004C2E5D2040208A0D201D9
:1006470080C6D20080C0D20280BCD2D580BAD20583
:1006570080B47F201205A22002077401B53A00403A
:10066700F1120567FF1205A20205DBD208D2068048
:1006770095120567FB120567FA120567F94A4B7071
:100687000679977A097BFF20022EE53A602A7E00D9
:100697008E827583001204E460060EEE653B70F0EF
:1006A700C2D5EBC0E0EAC0E0E9C0E0EE120900D035
:1006B700E0F9D0E0FAD0E0FB1204CBFF60AAEBC070
:1006C700E0EAC0E0E9C0E01205A2D0E02401F9D0D9
:1006D700E03400FAD0E0FBE53B0460DCD53BD98091
:1006E70087D20280A21208E360F7E53B700104128B
:1006F7000231A93B600DE53B600914F53B12098AFD
:10070700EF60F3EA30E702F404C3995077EAF4257F
:100717003B0430E701E404F53B800D1208E360C1B8
:10072700EA053B253B120231EA7838F630E701E467
:10073700253B04D53B0420050114120900E4C0E061
:1007470012098A7838E6601320E70714F612058A3B
:10075700802204F6D0E014C0E07F0012058AE53B52
:100767006007120581153B800B300503120581D008
:10077700E00205DBD0E00480C51208E360A0E53B9A
:10078700041202317838EAF6E53B200502600104DD
:0507970024041209001A
:10079C0074FF04C0E012098A12058AE53B200502A9
:1007AC006003120581D0E0B53BE87F4512059478D3
:1007BC0038E67F2B30E7047F2DF404C0E01205A24D
:1007CC00D0E075F00A84C0F012058BD0E012058BD6
:1007DC000205DB791080027908C206C2088008D2B3
:1007EC00D5790A8004790AC2D5E53B047002F53B41
:1007FC00E4FAFDFEFF120567FC7B082001131205CD
:10080C0067FD7B1030000A120567FE120567FF7B3F
:10081C0020EC3382D592D55013C3E43000069FFFF1
:10082C00E49EFEE42001039DFDE49CFCE4CBF8C2B5
:10083C0001EC700CCFCECDCCE824F8F870F3801717
:10084C00C3EF33FFEE33FEED33FDEC33FCEB33FB48
:10085C00994002FB0FD8E9EB300105F8D0E0C44811
:10086C00B201C0E00AEC4D4E4F78207B0070C2EA1A
:10087C00B53B0040BCC0E0120902D0F0D0E0200132
:10088C0004C4C0E0C4B201C0F012058BD0F0D5F0A6
:10089C00EB0205DB12054106785307DF5806494C7D
:1008AC0006454207E34F07EB4407EB49065E430757
:1008BC00F15507224607804506EC4709B750064D0F
:1008CC002D06512E06742B06552306722009A02ADC
:1008DC00060D480000066CE53BB4FF03753B0612A1
:1008EC000567FC120567FD120567FE120567FF78A8
:1008FC0031020260790AA2D5200314300509B9101F
:10090C00020404B9080104A2D520060250010420F7
:10091C0002689202B53A005034C0E07F20300319CF
:10092C007F30A20272067205500F120959C202C220
:10093C0006C205C2087F30800F300503E9C0E01203
:10094C0005A2300503D0E0F9D0E0B53ACC3005175C
:10095C007F30B9100C1205A27F583004077F7880C5
:10096C0003B908031205A23002057F2D0205A27FF0
:10097C00202008F87F2B2006F322920280CF7F00E4
:10098C00B4070050052431F8E6FF22286E756C6C14
:10099C002900D2011205673001F8C201783A30D52E
:1009AC000108F602060D2D50434958120567240321
:1009BC00B405004001E49009B293120593743A1205
:0A09CC000593D203753A040207DF19
:1001E700E9D2E7C933E833F892D5EDD2E7CD33EC5E
:0701F70033FC5002B2D522D7
:1001FE00EC30E7100FBF000C0EBE00080DBD000462
:10020E000BEB6014A2D5EB13FCED92E7FD2274FF0D
:10021E00FCFDFEFF22E480F8A2D574FF13FC7D8066
:03022E00E480EF7A
:10023100F920E72824F950037907E4F42402FB1894
:10024100DBFDE624FB5014E9600DE4F618E604F644
:0F025100B40A08E4F6D9F57401F60A22C2D522E0
:10026000ED33EC3392D5FA602AB4FF33EDC2E77B6D
:10027000FF60067A027985E4227A02798E20D5041D
:100280007A027989224E614E002B494E46002D4953
:100290004E4600E47A08F608DAFC7B00740722E890
:1002A000C0E0ECC0E0EDC0E0EEC0E0EFC0E0EA7519
:1002B000F010A4CAABF075F04DA42BFBE435F0FCB4
:1002C000EA2410FAEB34C5FBEC34D9FCEDC2E7FFAD
:1002D00075F056A4F42411C5F0F434C58FF0A42AA7
:1002E000E5F03BE43CF620E71412048BD0E0FFD0AD
:1002F000E0FED0E0FDD0E0FC12010C8014F404120A
:10030000048BD0E0FFD0E0FED0E0FDD0E0FC120096
:1003100003D0E0F8E6FAEDD2E7CD33EC332482FBEC
:10032000E4C3CF33CFCE33CECD33CD33DBF37B0736
:1003300075F00A846004F6081B0AE5F0F6088FF0F1
:10034000740AA4FFACF08EF0740AA42CFEACF0503A
:10035000010C8DF0740AA42CFDE435F0F608DBDE08
:03036000740722FD
:1003630002021CE86480F8E933E83360110460F0AA
:10037300ED33EC337009E8FCE9FDEAFEEBFF220400
:1003830060DED3EB9FEA9EE99DE8C2E78CF0C2F7FB
:1003930095F0400CE8CCF8E9CDF9EACEFAEBCFFBC7
:1003A3001201E785D0F05804700320D5B3E8047038
:1003B300075002B2D502022692D5EC0460F7E4CCD2
:1003C300C0E0C398F8603B94186008400DD0E0FB90
:1003D3000201FEE4FBFAC9FC8028E830E406E4C924
:1003E300FBE4CAFCE830E305E4C9CACBFCE85407E4
:1003F3006010F8C3E913F9EA13FAEB13FBEC13FCEF
:10040300D8F130F52FC3E49CFCEF9BFFEE9AFEED91
:1004130099FDD0E0FBEF4E4D4C701222DB0302023C
:1004230023EC2CFCEF33FFEE33FEED33FDED30E731
:10043300EB0201FEEF2BFFEE3AFEED39FDD0E0FBC0
:1004430050130BBB0003020226ED13FDEE13FEEF68
:0804530013FFEC13FC0201FE93
:10045B003F8000004120000042C80000447A0000A9
:10046B00461C400047C35000497424004B1896802B
:10047B004CBEBC205A0E1BCA6753C21C749DC5AE22
:10048B00FB60065407601C23231204B9EB5438603D
:10049B00091204A51204B4120003ECF8EDF9EEFAFC
:1004AB00EFCB22EB1204B480F1543803241C9004DC
:1004BB005BFE93FC0EEE93FD0EEE930ECE93FF229E
:1004CB00BB010689828A83E0225002E722BBFE022F
:0904DB00E32289828A83E4932262
:1004E400BB010CE58229F582E5833AF583E02250CD
:1004F40006E92582F8E622BBFE06E92582F8E22217
:0D050400E58229F582E5833AF583E4932230
:10051100BB010689828A83F0225002F722BBFE01C9
:02052100F322C3
:0E052300C3E49FFFE49EFEE49DFDE49CFC22E9
:10053100FAE6FB0808E6F925F0F618E6CA3AF622CB
:10054100D083D082F8E4937012740193700DA3A349
:1005510093F8740193F5828883E47374029368605D
:06056100EFA3A3A380DF5D
:100C5700EFB40A07740D120C62740A309811A89940
:100C6700B8130CC2983098FDA899C298B811F630FD
:070C770099FDC299F59922D5
:00000001FF
