:03000000020900F2
:0C090000787FE4F6D8FD75810B0208003A
:10085F00496E697469616C697A7A696E672053654C
:10086F007269616C20436F6D6D756E696361746938
:10087F006F6E0050726F63657373696E672E2E2EE5
:10088F002E2E00436F6E6E6563746564003C3C00F2
:03089F003E3E00DA
:100800001209257BFF7A08795F1208A212092B7F53
:100810000A7E001208C77BFF7A0879821208A27F3D
:10082000E87E031208C712092B7BFF7A087992121F
:1008300008A212092B7BFF7A08799C1208A21209E0
:100840001D8F0B12092B12092B7BFF7A08799F123F
:0F08500008A2AF0B12091512092B12092B80D623
:0609250075985002090C58
:09090C00758920758DFDD28E2243
:080915008F993099FDC299226F
:07091D003098FDAF99C2986C
:0109240022B0
:1008A2008B088A09890AAB08AA09A90A1208E76013
:1008B20013050AE50A7002050914F91208E7FF1286
:0508C200091580E2228F
:1008C700E4FDFCD3ED9FEC9E5015E4FBFA0BBB0057
:0F08D700010AEB64794A70F50DBD00010C80E455
:0108E60022EF
:05092B007F0D0209151B
:1008E700BB010689828A83E0225002E722BBFE020F
:0908F700E32289828A83E4932242
:00000001FF
